:020000002429B1
:0E000600213083120313FD00FD0B07280800B4
:100014000F3083120313FC004730FD00FD0B102842
:0A002400FC0B10280000000008008B
:06002E00000000000800C4
:1000340083160313BF1B21288312871223288312DC
:10004400871683163F1B2928831207122B28831235
:1000540007168316BF1A3128831287113328831297
:10006400871583163F1A3928831207113B288312F8
:10007400071583163918412883120714432883125D
:1000840007108714172087108316BF194C28831272
:1000940087124E288312871683163F195428831219
:1000A40007125628831207168316BF185C2883127A
:1000B40087115E288312871583163F1864288312DC
:1000C4000711662883120715831639186C288312C2
:1000D40007146E28831207108714172087108316BD
:0C00E400391C76280A2077280320080029
:0E00F0008316031338088A00370882000800C0
:1000FE008316031339103E08BF001A2083163914D5
:02010E000800E7
:100110008316031387100710071187110712871220
:1001200083128710071087120712871107110A2000
:100130000A200A20871507158714172087100A2020
:100140008714172087100A208714172087100A2089
:1001500007118714172087100A208714172087108B
:10016000871187168714172087100A208712071512
:1001700087141720871007118714172087100A206B
:1001800087141720871007158714172087100A2057
:10019000071187141720871087160716871507156C
:0E01A0008714172087100A20831639140800D0
:1001AE00E928803083160313BA00FC28C030BA0049
:1001BE00FC289430BA00FC28D430BA00FC288030D9
:1001CE00BA00FC28831603133A08013A0319D828FB
:1001DE003A08023A0319DD283A08033A0319E028CF
:1001EE003A08043A0319E328E6283B03F0003A08DC
:1001FE00F0077008BA007008BF001A208316391075
:10020E00BD013D083C0784000008031916293D086E
:10021E003C0784000008BE007F20BD0A082939145F
:02022E000800C6
:1002300078208A110A128000840AB70A0319B80AC2
:08024000F003031D182908005A
:1002480048220730831603139F00C73085008601B4
:1002580087018312860188200130BA000130BB0073
:100268002030BC00D7200630FB001330FC00AD3036
:10027800FD00FD0B3D29FC0B3D29FB0B3D29000032
:1002880000008312051C6429061401308316BF0080
:100298001A2001308316BA000130BB00AB30BC0015
:1002A800D7200630FB001330FC00AD30FD00FD0BFD
:1002B8005B29FC0B5B29FB0B5B2900000000DA299A
:1002C8008312851C8329861401308316BF001A20E7
:1002D80001308316BA000130BB00A030BC00D72023
:1002E8000630FB001330FC00AD30FD00FD0B7A2911
:1002F800FC0B7A29FB0B7A2900000000DA2983120B
:10030800051DA12901308316BF001A20013083166C
:10031800BA000130BB004930BC00D7200630FB00D2
:100328001330FC00AD30FD00FD0B9829FC0B98291B
:10033800FB0B982900000000DA298312851DC029CB
:10034800861501308316BF001A2001308316BA00C3
:100358000130BB003C30BC00D7200630FB00133016
:10036800FC00AD30FD00FD0BB729FC0BB729FB0BDA
:10037800B72900000000DA2983160130BF001A20CF
:1003880001308316BA000130BB005430BC00D720BE
:100398000630FB001330FC00AD30FD00FD0BD22908
:1003A800FC0BD229FB0BD229000000004529DB29D0
:1004900020308400503083120313F000E1308316C3
:1004A000B7000130B8001821A03084001730F000E8
:0E04B00031308316B7000230B8001821080062
:1003C20074346834653420344334693472346334A9
:1003D200753469347434203469347334203472349B
:1003E2006534613464347934203474346F342034A5
:0803F2007534733465340034E6
:1003FA004F34753474347034753474343A34203468
:0A040A0033342C34333456340034FC
:100414004F34753474347034753474343A3420344D
:06042400353456340034AB
:10042A007434683465342034433469347234633440
:10043A007534693474342034693473342034723432
:10044A006534613464347934203474346F3420343C
:08045A0075347334653400347D
:100462004F34753474347034753474343A342034FF
:0604720039345634003459
:100478004F34753474347034753474343A342034E9
:080488003134323456340034E3
:02400E004A2F37
:00000001FF
